:020000000C945E
:1000020042000C9400000C9400000C9400000C942C
:1000120000000C9400000C9400000C9400000C945E
:1000220000000C9400000C9400000C9400000C944E
:1000320000000C9400000C9400000C9400000C943E
:1000420000000C9400000C9400000C9400000C942E
:1000520000001027E80364000A00010000100001FC
:10006200100001003738392F343536783132332DCC
:1000720063303D2B2564000080C0020060017A00DD
:100082000000F894EE27ECBBF1E0FBBFEBBFE5BF4D
:100092008DE0A2E0BB27ED938A95E9F780E094E03A
:1000A200A0E6ED930197E9F7ECE7F0E085919591F1
:1000B200009761F0A591B59105901590BF01F001EF
:1000C20005900D920197E1F7FB01F0CFEFE5EDBF4F
:1000D200E4E0EEBFC0E6D1E00C940701882444249A
:1000E2005524662477240895BA93AA93EF97A59787
:1000F200FE01FA93EA93E6E7F0E0FA93EA93FE014F
:10010200E859FF4F0190F081E02D0E9447040E94C0
:100112009F0484E00E946E0328960BD1DE012AD14F
:10012200EF96A7960895EBE2E91521F4D301A40D09
:10013200B51D1FC0E8E7E91529F4F301D2010E94B9
:10014200540416C0EFE2E91529F4F301D2010E942A
:100152006C040EC0EDE2E91521F4D201A619B7092B
:1001620008C0E5E2E91531F4F301D2010E947104FD
:10017200DF01BADF0895AA93A881A33611F4AEDF96
:1001820035C1882081F44424552466247724E881EB
:10019200E03318F0A881AA3308F004C00E94BB0320
:1001A200E1E08E2E32C0E1E0E81579F4E881E03337
:1001B20018F0A881AA3308F003C00E94BB0304C050
:1001C2009880E2E08E2EB5D020C0E2E0E81571F40E
:1001D200E881E03318F0A881AA3308F005C00E9434
:1001E200CA03E3E08E2E01C098800FC0E3E0E81559
:1001F20061F4E881E03318F0A881AA3308F003C063
:100202000E94CA0302C08FDF69DFF1C0609780E1FC
:10021200A0E0B0E0E6E6F0E00E94B20400E010E008
:1002220021E030E05BDFE0E0EABBEBBBE7BBE8BB31
:10023200E4BBE5BBE1BBE2BBE3BFE2BFECBFEFBDAA
:10024200EEBDEDBDECBDE7BDE6BDEBBDEABDE9BD72
:10025200E8BDE2BDE5BDE4BDE3BDE9BFE5BFE4BF86
:10026200EAB9E0E8E8B9E0E0E0BFE6B9EDB9E6BF37
:10027200A0E191D0EFEFE5BBEFE0E4BBE5B3EF60C7
:10028200E5BB15B2E02FA22F0E943104E095E121D7
:10029200E5BB40E050E04430E0E05E079CF40E94A1
:1002A200D90369F4F801DE010E944204EA0FFB1F40
:1002B200E40FF51FA0815FDF0E94D903E9F34F5FCE
:1002C2005F4FE9CF0F5F1F4FF801A3E0B0E00E943C
:1002D2007F048F01D3CFFFCFAA93EBB3EF70AE2F82
:1002E200E881E07FEA2BEBBB8DE08A95F1F7DA9AA1
:1002F2008DE08A95F1F7DA988DE08A95F1F777C06B
:10030200AA93A881E9DFE881E295E883A881E4DF86
:1003120085E88A95F1F76BC0AA93E881F0E0E05A8C
:10032200FE4FE081A981AE0FEBDFB980A880229653
:100332000895A2E00E94E503ACE0E2DFA1E00E94A2
:10034200E503E0E0AE2EBE2E0895AA93A881AA305E
:1003520011F0BD1448F0E0E0EA93A394AA2DDCDF8B
:10036200A881AA3009F443C0B394D89AA881C8DFFF
:10037200D8983DC0BA93AA931A93A981BA81ED91F4
:10038200A983BA831E2FE03019F0A12FDEDFF5CF4B
:10039200188123960895AA93EAB3E06FEABBD29A32
:1003A200D09AD19ADA98D898D998D880E881E0582A
:1003B200E0936201E881E054E0936301A4E1B0E0DC
:1003C2000E941F040E94EB030E94EB030E94EB03B6
:1003D200A0E282DF88EC90E00197F1F7A8E290DFDB
:1003E200A4E08EDFA5E88CDFA6E08ADFA2DF2196FB
:1003F2000895BA93AA931A930A93AA81BB8112967B
:100402000E949704309759F1AA81BB8114960E94E9
:1004120097048F01309761F00230E0E01E0798F0F8
:10042200F80131978F01AA81BB811496ED93FC9359
:10043200AA81BB811296ED91FD913196FE93EE93C6
:100442003197AC81A083AA81BB810E949704FF23CC
:100452002AF0ED91FD913196FE93EE9306C0AA81AA
:10046200BB81EFEFFFEFED93FC9319810881259695
:100472000895BA93AA9326970E94A40410E0AC852B
:10048200BD85E0E0F0E0ED93FC93EA89FB893196CB
:10049200EA8BFB8B3197E4912E2FE03009F415C1E2
:1004A200E12FE03039F4253211F411E002C00E944C
:1004B200F3030AC1E130A9F4253219F40E94F303CF
:1004C20002C112E040E000E02D3211F401E0FCC074
:1004D2002B3211F44BE2F8C0203211F440E2F4C0A6
:1004E20002C0E23039F450E013E0203311F4006826
:1004F200EBC003C0E33009F0E7C0203310F02A3329
:1005020008F007C0AAE05A9F502DE22FE0535E0F79
:10051200DBC0E22FE33649F40E94FA03E889F98945
:10052200A481AA930E940004CEC0E33741F40E9442
:10053200FA030E9406040E94A2031E2F0AC0E0379B
:1005420061F40E94FA030E9406040E94AE031E2F69
:10055200086002600F7730E034C0E43611F0E9360B
:1005620011F4046002C0E53731F4E4E5F0E0EE8313
:10057200FF8315E00CC0E83511F4086003C0E837CA
:1005820009F0A1C0EEE5F0E0EE83FF8314E002FF84
:1005920014C00E94FA030E941004AB85AA233AF405
:1005A200EA85FB850E942D04EA87FB874DE24030F5
:1005B20011F01F5F01C00B7F04C00E94FA030E946A
:1005C200100400FD11C0151778F407FF08C002FFE0
:1005D20004C00B7F242F115001C020E301C020E290
:1005E2000E94F3035150EFCF312F01FF17C030307B
:1005F200A1F003FF06C0EE81FF812591EE83FF8308
:1006020005C0AE81BF812D91AE83BF830E94F303EB
:10061200503009F051503150EACF4BC020E3EE8107
:10062200FF810E949B04E887F987EE81FF81329661
:10063200EE83FF83E885F985AA85BB85AE17BF07E0
:1006420050F02F5FA885B985EA85FB85EA1BFB0B75
:10065200EA87FB87EFCF2A3328F003FF02C0295F26
:1006620001C0295D04FD1AC0213320F4A885B98593
:10067200119709F409C0531710F000FF01C013C00D
:1006820020E207FF0BC020E3006102FF07C00B7FDF
:100692004A930E940004503009F051500E94F30323
:1006A200503009F051503150A885B985129708F0A1
:1006B200B5CF00FF08C0503031F05150E0E2EA936C
:1006C2000E940004F8CF10E0E0CEAC85BD850E9408
:1006D20097040E94AB0464960895FF92F82E269721
:1006E2000E94A6040E941804309719F4EFEFFFEF5E
:1006F20023C0DE0116960E9429048D010E9418046F
:10070200EE83FF83E0E0E887E987DE011A960E9424
:1007120029040E949704FA93EA931A930A93EAEF40
:10072200F1E0FA93EA93DE011A96A3DE9F01AE810D
:10073200BF81E0E0EC93F9010E94AD042A96FF909C
:100742000895BA93AA93A991B991EE27FF276D91C3
:10075200662311F03196FBCF0895BA93AA93AA2784
:10076200BB27E991F9910590002011F01196FBCF7A
:10077200FD010895F201AAE0B0E00E945404DF01F5
:10078200E881F0E0F097EA0FFB1F2F01D2010C94F1
:100792007500F301AAE0B0E00E945404DF01E88191
:1007A200F0E0F097EA0FFB1F3F01D3010C947500B4
:1007B20013B2FA013496D9010E943904A12DB0E096
:1007C200EA23FB23309708950E948101A3E0B0E061
:1007D2000C941F04A0E30E946D0188EC90E0019745
:1007E200F1F708952A93AD85BE85EF85F8890995BD
:1007F2000895E889F9893497E88BF98B0895AD85D6
:10080200BE85EF85F88909950895A889B989149656
:100812000E949704EE83FF83AE81BF810895A88969
:10082200B98914960E949704EA87FB870895DE012E
:100832001C960E9429040E9497040895109639F08C
:1008420080ED97E00197F1F7A8951197C9F7089500
:100852000024AF0DB01D0895F195E195F040089583
:10086200EE230E2EEA2F19F0EE0F0A94E9F70895FF
:10087200EE230E2EFD0121F0EE0FFF1F0A94E1F789
:100882000895EE0FFF1FEE0FFF1F08956F2F660FE3
:10089200660B762F0895FA9FF02DEB9FF00DEA9FDD
:1008A200E02DF10D089534D0F6DF0EF4D5DF089572
:1008B2000024112490E1AA0FBB1F001C111C0E1A68
:1008C2001F0A18F40E0E1F1E01C0A1609A9599F717
:1008D200FD01D00108951CD0EBDF0EF4BDDF0895B9
:1008E200E894B7FF04C0A095B09511966894F7FDFF
:1008F200B3DFDEDFFD010EF4AFDF0895E894F7FF0A
:1009020002C0AADF6894EA23FB230EF4A5DF089550
:10091200E894F7FF02C0A0DF6894B7FF06C0A09575
:10092200B095119600F8039400FA0895ED91FC91A8
:10093200119708950590F491E02D08957A936A93A2
:10094200FA93EA9308955A934A933A932A931A93FD
:100952000A9308955D814C813B812A811981088126
:100962000895AC0FBD1F05900D928A95E1F7089589
:00000001FF
